{
  "_format": "hh-sol-artifact-1",
  "contractName": "Cryptoshambo",
  "sourceName": "contracts/Cryptoshambo.sol",
  "abi": [
    {
      "inputs": [],
      "stateMutability": "nonpayable",
      "type": "constructor"
    },
    {
      "anonymous": false,
      "inputs": [
        {
          "indexed": true,
          "internalType": "address",
          "name": "_poster",
          "type": "address"
        },
        {
          "indexed": true,
          "internalType": "address",
          "name": "_challenger",
          "type": "address"
        },
        {
          "indexed": true,
          "internalType": "uint256",
          "name": "_id",
          "type": "uint256"
        },
        {
          "indexed": false,
          "internalType": "address",
          "name": "winner",
          "type": "address"
        },
        {
          "indexed": false,
          "internalType": "uint256",
          "name": "_amount",
          "type": "uint256"
        }
      ],
      "name": "Completed",
      "type": "event"
    },
    {
      "anonymous": false,
      "inputs": [
        {
          "indexed": true,
          "internalType": "address",
          "name": "previousOwner",
          "type": "address"
        },
        {
          "indexed": true,
          "internalType": "address",
          "name": "newOwner",
          "type": "address"
        }
      ],
      "name": "OwnershipTransferred",
      "type": "event"
    },
    {
      "anonymous": false,
      "inputs": [
        {
          "indexed": true,
          "internalType": "address",
          "name": "_poster",
          "type": "address"
        },
        {
          "indexed": true,
          "internalType": "uint256",
          "name": "_id",
          "type": "uint256"
        }
      ],
      "name": "WagerCancelled",
      "type": "event"
    },
    {
      "anonymous": false,
      "inputs": [
        {
          "indexed": true,
          "internalType": "address",
          "name": "_poster",
          "type": "address"
        },
        {
          "indexed": true,
          "internalType": "uint256",
          "name": "_id",
          "type": "uint256"
        },
        {
          "indexed": false,
          "internalType": "uint256",
          "name": "_amount",
          "type": "uint256"
        }
      ],
      "name": "WagerCreated",
      "type": "event"
    },
    {
      "stateMutability": "payable",
      "type": "fallback"
    },
    {
      "inputs": [
        {
          "internalType": "uint256",
          "name": "_id",
          "type": "uint256"
        },
        {
          "internalType": "enum Cryptoshambo.RockPaperOrScissors",
          "name": "_choice",
          "type": "uint8"
        }
      ],
      "name": "callWager",
      "outputs": [],
      "stateMutability": "payable",
      "type": "function"
    },
    {
      "inputs": [
        {
          "internalType": "uint256",
          "name": "_id",
          "type": "uint256"
        }
      ],
      "name": "cancelWager",
      "outputs": [],
      "stateMutability": "nonpayable",
      "type": "function"
    },
    {
      "inputs": [],
      "name": "getLatestResults",
      "outputs": [
        {
          "components": [
            {
              "internalType": "uint256",
              "name": "id",
              "type": "uint256"
            },
            {
              "internalType": "address payable",
              "name": "poster",
              "type": "address"
            },
            {
              "internalType": "address payable",
              "name": "challenger",
              "type": "address"
            },
            {
              "internalType": "uint256",
              "name": "amount",
              "type": "uint256"
            },
            {
              "internalType": "enum Cryptoshambo.RockPaperOrScissors",
              "name": "posterChoice",
              "type": "uint8"
            },
            {
              "internalType": "enum Cryptoshambo.RockPaperOrScissors",
              "name": "challengerChoice",
              "type": "uint8"
            },
            {
              "internalType": "address payable",
              "name": "winner",
              "type": "address"
            },
            {
              "internalType": "enum Cryptoshambo.Status",
              "name": "status",
              "type": "uint8"
            }
          ],
          "internalType": "struct Cryptoshambo.Result[]",
          "name": "",
          "type": "tuple[]"
        }
      ],
      "stateMutability": "view",
      "type": "function"
    },
    {
      "inputs": [],
      "name": "getLatestWagers",
      "outputs": [
        {
          "components": [
            {
              "internalType": "uint256",
              "name": "id",
              "type": "uint256"
            },
            {
              "internalType": "address payable",
              "name": "poster",
              "type": "address"
            },
            {
              "internalType": "uint256",
              "name": "amount",
              "type": "uint256"
            },
            {
              "internalType": "enum Cryptoshambo.RockPaperOrScissors",
              "name": "choice",
              "type": "uint8"
            },
            {
              "internalType": "enum Cryptoshambo.Status",
              "name": "status",
              "type": "uint8"
            }
          ],
          "internalType": "struct Cryptoshambo.Wager[]",
          "name": "",
          "type": "tuple[]"
        }
      ],
      "stateMutability": "view",
      "type": "function"
    },
    {
      "inputs": [],
      "name": "getTotalAmountStaked",
      "outputs": [
        {
          "internalType": "uint256",
          "name": "",
          "type": "uint256"
        }
      ],
      "stateMutability": "view",
      "type": "function"
    },
    {
      "inputs": [],
      "name": "getUsersTransactions",
      "outputs": [
        {
          "components": [
            {
              "internalType": "uint256",
              "name": "id",
              "type": "uint256"
            },
            {
              "internalType": "address payable",
              "name": "poster",
              "type": "address"
            },
            {
              "internalType": "uint256",
              "name": "amount",
              "type": "uint256"
            },
            {
              "internalType": "enum Cryptoshambo.RockPaperOrScissors",
              "name": "choice",
              "type": "uint8"
            },
            {
              "internalType": "enum Cryptoshambo.Status",
              "name": "status",
              "type": "uint8"
            }
          ],
          "internalType": "struct Cryptoshambo.Wager[]",
          "name": "",
          "type": "tuple[]"
        },
        {
          "components": [
            {
              "internalType": "uint256",
              "name": "id",
              "type": "uint256"
            },
            {
              "internalType": "address payable",
              "name": "poster",
              "type": "address"
            },
            {
              "internalType": "address payable",
              "name": "challenger",
              "type": "address"
            },
            {
              "internalType": "uint256",
              "name": "amount",
              "type": "uint256"
            },
            {
              "internalType": "enum Cryptoshambo.RockPaperOrScissors",
              "name": "posterChoice",
              "type": "uint8"
            },
            {
              "internalType": "enum Cryptoshambo.RockPaperOrScissors",
              "name": "challengerChoice",
              "type": "uint8"
            },
            {
              "internalType": "address payable",
              "name": "winner",
              "type": "address"
            },
            {
              "internalType": "enum Cryptoshambo.Status",
              "name": "status",
              "type": "uint8"
            }
          ],
          "internalType": "struct Cryptoshambo.Result[]",
          "name": "",
          "type": "tuple[]"
        }
      ],
      "stateMutability": "view",
      "type": "function"
    },
    {
      "inputs": [],
      "name": "owner",
      "outputs": [
        {
          "internalType": "address",
          "name": "",
          "type": "address"
        }
      ],
      "stateMutability": "view",
      "type": "function"
    },
    {
      "inputs": [
        {
          "internalType": "uint256",
          "name": "_amount",
          "type": "uint256"
        },
        {
          "internalType": "enum Cryptoshambo.RockPaperOrScissors",
          "name": "_choice",
          "type": "uint8"
        }
      ],
      "name": "postWager",
      "outputs": [],
      "stateMutability": "payable",
      "type": "function"
    },
    {
      "inputs": [],
      "name": "renounceOwnership",
      "outputs": [],
      "stateMutability": "nonpayable",
      "type": "function"
    },
    {
      "inputs": [
        {
          "internalType": "address",
          "name": "newOwner",
          "type": "address"
        }
      ],
      "name": "transferOwnership",
      "outputs": [],
      "stateMutability": "nonpayable",
      "type": "function"
    },
    {
      "inputs": [],
      "name": "withdraw",
      "outputs": [],
      "stateMutability": "nonpayable",
      "type": "function"
    },
    {
      "stateMutability": "payable",
      "type": "receive"
    }
  ],
  "bytecode": "0x608060405234801561001057600080fd5b5061001a33610028565b600180556000600755610078565b600080546001600160a01b038381166001600160a01b0319831681178455604051919092169283917f8be0079c531659141344cd1fd0a4f28419497f9722a3daafe3b4186f6b6457e09190a35050565b612171806100876000396000f3fe60806040526004361061009a5760003560e01c8063715018a611610061578063715018a6146101355780637b291dbe1461014a5780637dc284d71461016657806383afbe17146101795780638da5cb5b1461019b578063f2fde38b146101c357005b80631d3c209b146100a3578063246d9fe8146100cf5780633ccfd60b146100ed5780634f067dc7146101025780636e8d4aa11461012257005b366100a157005b005b3480156100af57600080fd5b506100b86101e3565b6040516100c6929190612014565b60405180910390f35b3480156100db57600080fd5b506007546040519081526020016100c6565b3480156100f957600080fd5b506100a16101fe565b34801561010e57600080fd5b506100a161011d366004611e51565b610233565b6100a1610130366004611e69565b6104ca565b34801561014157600080fd5b506100a1610a84565b34801561015657600080fd5b5060606040516100c69190611fee565b6100a1610174366004611e69565b610ab8565b34801561018557600080fd5b5061018e610d3d565b6040516100c69190612001565b3480156101a757600080fd5b506000546040516001600160a01b0390911681526020016100c6565b3480156101cf57600080fd5b506100a16101de366004611e23565b610f85565b6060806101ee611020565b6101f6611395565b915091509091565b6000546001600160a01b031633146102315760405162461bcd60e51b815260040161022890612042565b60405180910390fd5b565b600260015414156102565760405162461bcd60e51b815260040161022890612077565b600260018181556000838152602092909252604090912001546001600160a01b031633146102dc5760405162461bcd60e51b815260206004820152602d60248201527f756e61626c6520746f2063616e63656c2c206d75737420626520746865206f7260448201526c34b3b4b730b6103837b9ba32b960991b6064820152608401610228565b60008181526002602052604080822060010154905183926001600160a01b03909216917e59fbbf3b25be96c12a4fdf1661c520911f734e79e34faadc3e61f1aee4925991a3600081815260026020818152604092839020835160a0810185528154815260018201546001600160a01b031692810192909252918201549281019290925260038082015461042c939291606084019160ff169081111561039157634e487b7160e01b600052602160045260246000fd5b60038111156103b057634e487b7160e01b600052602160045260246000fd5b81526020016003820160019054906101000a900460ff1660048111156103e657634e487b7160e01b600052602160045260246000fd5b600481111561040557634e487b7160e01b600052602160045260246000fd5b905250604080516060810182526000808252602082015290810160039052600060036117f9565b60026000828152602001908152602001600020600201546007600082825461045491906120c6565b909155505060008181526002602081905260408083208381556001810180546001600160a01b03191690559182018390556003909101805461ffff19169055516108fc90829081818181818088f193505050501580156104b8573d6000803e3d6000fd5b506104c36006611b21565b5060018055565b600260015414156104ed5760405162461bcd60e51b815260040161022890612077565b60026001818155600084815260208381526040808320815160a08101835281548152948101546001600160a01b0316928501929092529381015493830193909352600380840154919391606084019160ff9091169081111561055f57634e487b7160e01b600052602160045260246000fd5b600381111561057e57634e487b7160e01b600052602160045260246000fd5b81526020016003820160019054906101000a900460ff1660048111156105b457634e487b7160e01b600052602160045260246000fd5b60048111156105d357634e487b7160e01b600052602160045260246000fd5b90525090506001816080015160048111156105fe57634e487b7160e01b600052602160045260246000fd5b146106555760405162461bcd60e51b815260206004820152602160248201527f7761676572277320737461747573206973206e6f742027434f4d4d49545445446044820152602760f81b6064820152608401610228565b348160400151146106bf5760405162461bcd60e51b815260206004820152602e60248201527f616d6f756e742073656e74206e6f74207468652073616d65206173207468652060448201526d1dd859d95c995908185b5bdd5b9d60921b6064820152608401610228565b60208101516001600160a01b03163314156107545760405162461bcd60e51b815260206004820152604960248201527f6368616c6c656e676572206d757374206265206120646966666572656e74206160448201527f6464726573732066726f6d20746865206f6e65207468617420706f73746564206064820152683a3432903bb0b3b2b960b91b608482015260a401610228565b60408051606081018252848152336020820152600091810184600381111561078c57634e487b7160e01b600052602160045260246000fd5b90529050600061079c8383611b78565b905060028160038111156107c057634e487b7160e01b600052602160045260246000fd5b1415610853576107d48383600060026117f9565b60208201516040516001600160a01b03909116903480156108fc02916000818181858888f1935050505015801561080f573d6000803e3d6000fd5b5082602001516001600160a01b03166108fc84604001519081150290604051600060405180830381858888f19350505050158015610851573d6000803e3d6000fd5b505b600081600381111561087557634e487b7160e01b600052602160045260246000fd5b14156108d75761088c8383856020015160026117f9565b82602001516001600160a01b03166108fc8460400151346108ad91906120ae565b6040518115909202916000818181858888f193505050501580156108d5573d6000803e3d6000fd5b505b60018160038111156108f957634e487b7160e01b600052602160045260246000fd5b141561095b576109108383846020015160026117f9565b81602001516001600160a01b03166108fc84604001513461093191906120ae565b6040518115909202916000818181858888f19350505050158015610959573d6000803e3d6000fd5b505b600381600381111561097d57634e487b7160e01b600052602160045260246000fd5b1415610a10576109918383600060046117f9565b82602001516001600160a01b03166108fc84604001519081150290604051600060405180830381858888f193505050501580156109d2573d6000803e3d6000fd5b5060208201516040516001600160a01b03909116903480156108fc02916000818181858888f19350505050158015610a0e573d6000803e3d6000fd5b505b348360400151610a2091906120ae565b60076000828254610a3191906120c6565b90915550610a4190506006611b21565b5050506000918252506002602081905260408220828155600180820180546001600160a01b0319169055918101929092556003909101805461ffff191690558055565b6000546001600160a01b03163314610aae5760405162461bcd60e51b815260040161022890612042565b6102316000611d8e565b60026001541415610adb5760405162461bcd60e51b815260040161022890612077565b6002600155348214610b3e5760405162461bcd60e51b815260206004820152602660248201527f616d6f756e742073656e74206973206e6f742074686520616d6f756e742072656044820152651c5d5a5c995960d21b6064820152608401610228565b60008211610b8e5760405162461bcd60e51b815260206004820152601960248201527f6d7573742062652061206e6f6e2d7a65726f20616d6f756e74000000000000006044820152606401610228565b60006040518060a00160405280610ba460055490565b815233602082015260408101859052606001836003811115610bd657634e487b7160e01b600052602160045260246000fd5b815260200160019052336000908152600360205260409020909150610bfa60055490565b815460018101835560009283526020832001556005548291600291815260208082019290925260409081016000208351815591830151600180840180546001600160a01b0319166001600160a01b03909316929092179091559083015160028301556060830151600380840180549293909260ff1916918490811115610c9057634e487b7160e01b600052602160045260246000fd5b0217905550608082015160038201805461ff001916610100836004811115610cc857634e487b7160e01b600052602160045260246000fd5b02179055505060058054600101905550610ce6600680546001019055565b8260076000828254610cf891906120ae565b9091555050805160405184815233907f49556773318f5e89c3044580a01c064d99e52b1c31f867c5364b168b8f51647b9060200160405180910390a350506001805550565b60606000600a610d4c60065490565b11610d5957600654610d5c565b600a5b67ffffffffffffffff811115610d8257634e487b7160e01b600052604160045260246000fd5b604051908082528060200260200182016040528015610de457816020015b610dd16040805160a08101825260008082526020820181905291810182905290606082019081526020016000905290565b815260200190600190039081610da05790505b50805190915060005b60055481108015610dfe5750600082115b15610f7d576001600082815260026020526040902060030154610100900460ff166004811115610e3e57634e487b7160e01b600052602160045260246000fd5b1415610f6b57600081815260026020818152604092839020835160a0810185528154815260018201546001600160a01b0316928101929092529182015492810192909252600380820154606084019160ff90911690811115610eb057634e487b7160e01b600052602160045260246000fd5b6003811115610ecf57634e487b7160e01b600052602160045260246000fd5b81526020016003820160019054906101000a900460ff166004811115610f0557634e487b7160e01b600052602160045260246000fd5b6004811115610f2457634e487b7160e01b600052602160045260246000fd5b90525083610f336001856120c6565b81518110610f5157634e487b7160e01b600052603260045260246000fd5b60200260200101819052508180610f67906120dd565b9250505b80610f75816120f4565b915050610ded565b509092915050565b6000546001600160a01b03163314610faf5760405162461bcd60e51b815260040161022890612042565b6001600160a01b0381166110145760405162461bcd60e51b815260206004820152602660248201527f4f776e61626c653a206e6577206f776e657220697320746865207a65726f206160448201526564647265737360d01b6064820152608401610228565b61101d81611d8e565b50565b336000908152600360209081526040808320805482518185028101850190935280835260609493849392919083018282801561107b57602002820191906000526020600020905b815481526020019060010190808311611067575b5050505050905060005b8151811015611120576001600260008484815181106110b457634e487b7160e01b600052603260045260246000fd5b6020026020010151815260200190815260200160002060030160019054906101000a900460ff1660048111156110fa57634e487b7160e01b600052602160045260246000fd5b141561110e578261110a816120f4565b9350505b80611118816120f4565b915050611085565b5060008267ffffffffffffffff81111561114a57634e487b7160e01b600052604160045260246000fd5b6040519080825280602002602001820160405280156111ac57816020015b6111996040805160a08101825260008082526020820181905291810182905290606082019081526020016000905290565b8152602001906001900390816111685790505b50905060005b825181101561138d576001600260008584815181106111e157634e487b7160e01b600052603260045260246000fd5b6020026020010151815260200190815260200160002060030160019054906101000a900460ff16600481111561122757634e487b7160e01b600052602160045260246000fd5b141561137b576002600084838151811061125157634e487b7160e01b600052603260045260246000fd5b6020908102919091018101518252818101929092526040908101600020815160a0810183528154815260018201546001600160a01b031693810193909352600281015491830191909152600380820154606084019160ff909116908111156112c957634e487b7160e01b600052602160045260246000fd5b60038111156112e857634e487b7160e01b600052602160045260246000fd5b81526020016003820160019054906101000a900460ff16600481111561131e57634e487b7160e01b600052602160045260246000fd5b600481111561133d57634e487b7160e01b600052602160045260246000fd5b8152505082858151811061136157634e487b7160e01b600052603260045260246000fd5b60200260200101819052508380611377906120f4565b9450505b80611385816120f4565b9150506111b2565b509392505050565b606060006113a1611dde565b60005b60045481101561157e57600481815481106113cf57634e487b7160e01b600052603260045260246000fd5b6000918252602091829020604080516101008101825260059093029091018054835260018101546001600160a01b039081169484019490945260028101549093169082015260038083015460608301526004830154919291608084019160ff9091169081111561144f57634e487b7160e01b600052602160045260246000fd5b600381111561146e57634e487b7160e01b600052602160045260246000fd5b81526020016004820160019054906101000a900460ff1660038111156114a457634e487b7160e01b600052602160045260246000fd5b60038111156114c357634e487b7160e01b600052602160045260246000fd5b81526004828101546201000081046001600160a01b03166020840152604090920191600160b01b900460ff169081111561150d57634e487b7160e01b600052602160045260246000fd5b600481111561152c57634e487b7160e01b600052602160045260246000fd5b90525060208101519092506001600160a01b0316331480611559575060408201516001600160a01b031633145b1561156c5782611568816120f4565b9350505b80611576816120f4565b9150506113a4565b5060008267ffffffffffffffff8111156115a857634e487b7160e01b600052604160045260246000fd5b6040519080825280602002602001820160405280156115e157816020015b6115ce611dde565b8152602001906001900390816115c65790505b5090506000805b6004548110156117ef576004818154811061161357634e487b7160e01b600052603260045260246000fd5b6000918252602091829020604080516101008101825260059093029091018054835260018101546001600160a01b039081169484019490945260028101549093169082015260038083015460608301526004830154919291608084019160ff9091169081111561169357634e487b7160e01b600052602160045260246000fd5b60038111156116b257634e487b7160e01b600052602160045260246000fd5b81526020016004820160019054906101000a900460ff1660038111156116e857634e487b7160e01b600052602160045260246000fd5b600381111561170757634e487b7160e01b600052602160045260246000fd5b81526004828101546201000081046001600160a01b03166020840152604090920191600160b01b900460ff169081111561175157634e487b7160e01b600052602160045260246000fd5b600481111561177057634e487b7160e01b600052602160045260246000fd5b90525060208101519094506001600160a01b031633148061179d575060408401516001600160a01b031633145b156117dd57838383815181106117c357634e487b7160e01b600052603260045260246000fd5b602002602001018190525081806117d9906120f4565b9250505b806117e7816120f4565b9150506115e8565b5090949350505050565b60006040518061010001604052808660000151815260200186602001516001600160a01b0316815260200185602001516001600160a01b03168152602001866040015181526020018660600151600381111561186557634e487b7160e01b600052602160045260246000fd5b81526020018560400151600381111561188e57634e487b7160e01b600052602160045260246000fd5b8152602001846001600160a01b031681526020018360048111156118c257634e487b7160e01b600052602160045260246000fd5b9052600480546001808201835560009290925282517f8a35acfbc15ff81a39ae7d344fd709f28e8600b4aa8c65c6b64bfe7fe36bd19b600590920291820190815560208401517f8a35acfbc15ff81a39ae7d344fd709f28e8600b4aa8c65c6b64bfe7fe36bd19c830180546001600160a01b03199081166001600160a01b039384161790915560408601517f8a35acfbc15ff81a39ae7d344fd709f28e8600b4aa8c65c6b64bfe7fe36bd19d85018054909216921691909117905560608401517f8a35acfbc15ff81a39ae7d344fd709f28e8600b4aa8c65c6b64bfe7fe36bd19e83015560808401517f8a35acfbc15ff81a39ae7d344fd709f28e8600b4aa8c65c6b64bfe7fe36bd19f909201805494955085949193909160ff1916908360038111156119ff57634e487b7160e01b600052602160045260246000fd5b021790555060a082015160048201805461ff001916610100836003811115611a3757634e487b7160e01b600052602160045260246000fd5b021790555060c08201518160040160026101000a8154816001600160a01b0302191690836001600160a01b0316021790555060e08201518160040160166101000a81548160ff02191690836004811115611aa157634e487b7160e01b600052602160045260246000fd5b02179055505050846000015184602001516001600160a01b031686602001516001600160a01b03167f457cd1bd89ac9d5294817908412db65e78b700758f9ef7e0d97be75e23251d47868960400151604051611b129291906001600160a01b03929092168252602082015260400190565b60405180910390a45050505050565b805480611b705760405162461bcd60e51b815260206004820152601b60248201527f436f756e7465723a2064656372656d656e74206f766572666c6f7700000000006044820152606401610228565b600019019055565b6060820151604082015160009190806003811115611ba657634e487b7160e01b600052602160045260246000fd5b826003811115611bc657634e487b7160e01b600052602160045260246000fd5b1415611bd757600292505050611d88565b6000826003811115611bf957634e487b7160e01b600052602160045260246000fd5b1415611c65576002816003811115611c2157634e487b7160e01b600052602160045260246000fd5b1415611c3257600092505050611d88565b6001816003811115611c5457634e487b7160e01b600052602160045260246000fd5b1415611c6557600192505050611d88565b6001826003811115611c8757634e487b7160e01b600052602160045260246000fd5b1415611cf3576000816003811115611caf57634e487b7160e01b600052602160045260246000fd5b1415611cc057600092505050611d88565b6002816003811115611ce257634e487b7160e01b600052602160045260246000fd5b1415611cf357600192505050611d88565b6002826003811115611d1557634e487b7160e01b600052602160045260246000fd5b1415611d81576001816003811115611d3d57634e487b7160e01b600052602160045260246000fd5b1415611d4e57600092505050611d88565b6000816003811115611d7057634e487b7160e01b600052602160045260246000fd5b1415611d8157600192505050611d88565b6003925050505b92915050565b600080546001600160a01b038381166001600160a01b0319831681178455604051919092169283917f8be0079c531659141344cd1fd0a4f28419497f9722a3daafe3b4186f6b6457e09190a35050565b60408051610100810182526000808252602082018190529181018290526060810182905290608082019081526020016000815260006020820181905260409091015290565b600060208284031215611e34578081fd5b81356001600160a01b0381168114611e4a578182fd5b9392505050565b600060208284031215611e62578081fd5b5035919050565b60008060408385031215611e7b578081fd5b82359150602083013560048110611e90578182fd5b809150509250929050565b6000815180845260208085019450808401835b83811015611f4757815180518852838101516001600160a01b03908116858a01526040808301518216908a0152606080830151908a0152608080830151909190611efa838c0182611fca565b5060a0915081830151611f0f838c0182611fca565b5060c083810151909116908a01525060e09081015190611f31818a0183611fde565b5050610100969096019590820190600101611eae565b509495945050505050565b6000815180845260208085019450808401835b83811015611f4757815180518852838101516001600160a01b03168489015260408082015190890152606080820151611fa0828b0182611fca565b505060809081015190611fb589820183611fde565b505060a0969096019590820190600101611f65565b60048110611fda57611fda612125565b9052565b60058110611fda57611fda612125565b602081526000611e4a6020830184611e9b565b602081526000611e4a6020830184611f52565b6040815260006120276040830185611f52565b82810360208401526120398185611e9b565b95945050505050565b6020808252818101527f4f776e61626c653a2063616c6c6572206973206e6f7420746865206f776e6572604082015260600190565b6020808252601f908201527f5265656e7472616e637947756172643a207265656e7472616e742063616c6c00604082015260600190565b600082198211156120c1576120c161210f565b500190565b6000828210156120d8576120d861210f565b500390565b6000816120ec576120ec61210f565b506000190190565b60006000198214156121085761210861210f565b5060010190565b634e487b7160e01b600052601160045260246000fd5b634e487b7160e01b600052602160045260246000fdfea2646970667358221220098f559b9e93c51609633018f7d9dc32a2c6bacd4caeaa87d4238b535bc1b2d664736f6c63430008040033",
  "linkReferences": {},
  "deployedLinkReferences": {}
}